:020000040800F2
:10800000D85B0020413C0108692F01086B2F010853
:108010006D2F01086F2F0108712F0108000000006B
:1080200000000000000000000000000089B300080C
:10803000732F01080000000031B30008A5B100084B
:10804000DD3D0108E13D0108E53D0108E93D01088C
:10805000ED3D0108F13D0108F53D0108F93D01083C
:10806000FD3D0108013E0108053E0108093E0108E9
:108070000D3E0108113E0108752F01087F2F0108F0
:10808000892F0108153E0108193E01080000000073
:108090000000000000000000000000001D3E01087C
:1080A000213E0108932F0108253E0108293E0108C1
:1080B0002D3E0108313E0108353E0108393E0108D8
:1080C0003D3E0108413E0108453E0108493E010888
:1080D0009D2F0108A72F0108DF2F010800000000D5
:1080E0004D3E0108513E0108553E010800000000C8
:1080F000000000000000000000000000593E0108E0
:10810000000000005D3E0108613E0108653E010877
:10811000000000000000000000000000000000005F
:10812000693E01086D3E0108E92F0108713E010812
:10813000753E010800000000000000000000000083
:10814000000000000000000000000000793E01086F
:108150007D3E0108813E0108F32F0108853E01089C
:10816000893E01088D3E010800000000000000006B
:1081700000000000000000000000000000000000FF
:1081800000000000913E0108000000000000000017
:10819000953E01082DE9F04F0FF2A41CA1B0DCE9D7
:1081A0000089CDE900892A9DDFF8109C0491002404
:1081B0008DF843500D944FF0FF38824616461F4607
:1081C0000FE0B3462C461BF8011B0498D04700284B
:1081D000049000F0A2800D98401C641E0D90F2D116
:1081E00076193078252808D10021002207910892BD
:1081F00009910A920B910C920DE06A464146304675
:1082000001F012F8050001D10D98A1E0D9D50125A2
:10821000E6E741F0010116F8010F2028F9D02328E4
:108220000CD02B2804D02D2805D0302809D076E09A
:1082300041F00201EFE741F00401ECE741F00801F1
:10824000E9E741F01001E6E70F9209E00F98484591
:1082500005DA00EB800402EB4402303A0F92761C00
:108260003278A2F130000A28F0D330782E2818BFD7
:10827000CDF8388022D116F8010F2A2807D13868A6
:108280003860761C50F8042B38600E9216E02D28CA
:108290000CBF761C002000220E920AE040B90E9A14
:1082A0004A4505DA02EB820403EB4403303B0E93AC
:1082B000761C3378A3F130020A2AEFD3ADF84010D0
:1082C00021A0317800F0BAFF08B116F8010B8DF843
:1082D00042009DF84200682804D1307868280AD10D
:1082E000622105E06C2804BF30786C2803D171212D
:1082F0008DF84210761C12A806903A4616F8013BFB
:1083000002A9504600F064F838B912AA02A95046F2
:1083100000F0CAF900287FF564AF404618E02A282B
:1083200092D13A683A6052F8040B3A6000280F90F4
:1083300003D540420F9041F00401761C95E7000000
:108340000000000000000000686A6C747A4C0000B5
:1083500021B0BDE8F08F622820D0682811D06A28AB
:1083600003D06C2827D0712825D10868C01D20F0C3
:1083700007000860D0E9002308300860194610465D
:108380007047002A0A680A60106803D0121D0A604C
:1083900000B217E0121D0A6080B217E0002A0A68D6
:1083A0000A60106803D0121D0A6040B20AE0121D74
:1083B0000A60C0B20AE0002A0A680A60106803D0A6
:1083C000121D0A60C1177047121D0A600021704714
:1083D0007CB50D4611461C462E69B4F1250200F00D
:1083E00051811C3A00F08680121F022A40F28280DE
:1083F0000E3A00F00B81521F5AD0093A7AD0921EE1
:1084000016D0521E35D0521E022A73D9121F30D0F8
:10841000521F00F09A80521E4AD0521E00F0E48093
:10842000D21E00F00181921E42D0D21E40D02FE118
:1084300095F83A406C2C09D06869421C6A610A6858
:108440000A6052F8043B0A6033542BE10A680A6060
:1084500052F8043B0A600093002201924FF0FF3370
:108460002B636A46294600F09AF9002840F11A81E8
:1084700005E195F83A000122FFF76DFFC5E900011B
:108480000023994204DA6869411C69612D220DE0DC
:10849000288F810704D56869411C69612B2205E09A
:1084A000C00722D56869411C6961202232541CE052
:1084B00095F83A000022FFF74EFFC5E9000195F854
:1084C0003800010711D5D5E900230020834208BFF9
:1084D00082420AD044F02000782806D16869302111
:1084E0003154401C421C6A6134542146686930444E
:1084F000E86087E00868C01D20F007000860D0E948
:10850000002308300860C5E90023D5E90001C80F41
:1085100004D06869411C69612D220DE0288F810714
:1085200004D56869411C69612B2205E0C00704D5A8
:108530006869411C69612022325468693044E860EE
:108540002146284600F03AFAACE005F13A025078AC
:1085500020B14FF0FF340FF6343074E01078622809
:1085600008D0682824D06A2812D06C282ED0712810
:108570000ED02BE00A680A6052F8040B0A6020B99A
:108580004FF0FF340FF61C305DE0E96A017089E0BE
:108590000A680A6052F8040B0A6020B94FF0FF34F1
:1085A0000FF600304FE0EA6AD317C0E9002379E004
:1085B0000A680A6052F8040B0A6020B94FF0FF34D1
:1085C0000FF6E0203FE0E96A01806BE00A680A608C
:1085D00052F8040B0A6020B94FF0FF340FF6C420A4
:1085E00031E0E96A01605DE00A680A6052F8040B54
:1085F0000A60002120F0000221F0FF33C5E90023CA
:10860000EE607821284600F02DF94BE06C2285F8C9
:108610003A200B680B6053F8042B0B6052BB4FF0F1
:10862000FF340FF6B4200EE095F83A206C2AF0D013
:108630000868086050F8044B0860EC603CB94FF0E3
:10864000FF340FF6782000F021FE201A76BD2E6B45
:10865000002E04D5204600F039FE044608E03246DC
:108660000021204600F05CFE002814BF041B3446A5
:10867000AC6117E0294600F092F8002812D54FF0BF
:10868000FF3076BD6869411C69612522325409E0DA
:108690006969481C686125227254210002D0431C7C
:1086A0006B613454002076BD2DE9F0410E4605463D
:1086B0009046726B7069316AB46A121AB069521AC4
:1086C000716A121AF069521A121A96F83800141BBD
:1086D00041070DD4002C0BDD2746B0682021A847A8
:1086E0000028B06057D0F06A401C7F1EF062F4D1C1
:1086F000736942463146284600F0B0FC00284AD152
:10870000376A002F0ADDB0683021A8470028B06022
:1087100041D0F06A401C7F1EF062F4D1B369F26868
:108720003146284600F09AFCA8BB776A002F09DD85
:10873000B0683021A847B06068B3F06A401C7F1E63
:10874000F062F5D1F068B169F36942183146284604
:1087500000F084FCF8B9B76A002F09DDB068302159
:10876000A847B060B8B1F06A401C7F1EF062F5D136
:1087700096F8380041070BD5002C09DDB0682021A0
:10878000A847B06038B1F06A401C641EF062F5D1B1
:108790000020BDE8F0814FF0FF30BDE8F0812DE909
:1087A000F8470D46A3B02F6B002F0646904648BFF2
:1087B0006FF000470FF63C1400F0DEFDD4E9002313
:1087C000696B4018CDE90123812828BF4FF0FF30A5
:1087D00042D20024002F33DDD8F8001001AA6846E9
:1087E00000F024FD8146B9F1000F38D4D8F800001C
:1087F00010B9B9F1010932D44F4521DB6869484409
:1088000081280AD30021696303AA29463046FFF76D
:108810004BFF040014D40020686103ABD5F814A00A
:108820004A46694603EB0A0000F0B0FDCA44C5F8A9
:1088300014A058F8040B002818BFA7EB0907C9D1EA
:108840004CB903AA29463046FFF72EFF044614B957
:10885000002068616863204624B0BDE8F0874FF0CF
:10886000FF34F8E72DE9FC4707468C463E69BCF12A
:108870006F0F08BF082405D04CF02000782814BFE3
:108880000A2410243C25D7E90023BCF1640F18BF4B
:10889000BCF1690F9046994606D100218B4203DA5C
:1088A000D8F1000869EB49094FF0000AD14508BF2B
:1088B000D0451FD1386BE8B9082C4BD197F8380058
:1088C000010747D530203B2586F83B0042E00028D1
:1088D0000ED597F8380000F01400102808D17B6BF3
:1088E0007969386A5B1A1B1A9A1A002AC8BF3A6259
:1088F000BDE8F3878DF800C0404649462246E3179D
:1089000000F098FD3032D0B26D1E3A28019504DB9C
:108910009DF80000A0F151018A1872554046494661
:108920002246E31700F086FD89468046D14508BF00
:10893000D04503D0F86871198842DDD3082C09D1DD
:1089400097F83800010705D5705D302802D06D1EFC
:1089500030207055C5F13C02BA617119F960386B6D
:108960008242B4DA821A3A624FF6EF70398F0140D0
:108970003987BDE8F3872DE9D04306460F461446F4
:108980004FF00008DFF8389412E0E00707D54246C0
:108990004B463046394600F065FE06460F464046D7
:1089A000494642464B4600F05DFE641080468946CB
:1089B000002CEAD130463946BDE8D0832DE9F34F8B
:1089C000054641F020048DB0D5E90089612C02AE46
:1089D00009D0286B002848BF062003D408BF672CA5
:1089E00001D101202863D5E9002358004015401C1F
:1089F0000ED119030CD00320A8619DF838106139FD
:108A00001A2902D20FF2F46111E00FF2F4610EE0C4
:108A100059004915491C0FD118030DD10320A86135
:108A20009DF8381061391A2914D30FF2DC61E86817
:108A3000032200F0ABFCD3E1194621F00043B3F56B
:108A4000801F10460DD20027BB4208BFBA420197D3
:108A500003D111E00FF2AC61E9E701AA00F0D4FE06
:108A60000AE0DFF8607307EB1352DFF85C33019222
:108A70001940DFF858331943C5E90001612C0ED1C4
:108A8000E86830210170821CEA609DF83810612985
:108A90000CBF7821582141706869801C6861D5E954
:108AA00000AB2BF0004300202AF00002834204BFF9
:108AB0008242002300F05B81612C40F0AA80286B89
:108AC000002847BF21210091401C0090009F7F1C7F
:108AD000404649460022002300F0CEFED9460199C7
:108AE0008DF8082038BF89F00049091F002FD046B3
:108AF00001910DF1090040F34981B349DFF8D0B28B
:108B00000C910646404649460022002300F0CCFE68
:108B100080F03B814800400D00F11C0211D0002A7A
:108B20000FDD40F2FF70824205DB09F0004040EAB1
:108B30000B01002013E00C98014041EA025140462D
:108B40000DE029F00043002028F00002834208BF16
:108B500082420FBF40461C22404600F0BDFE8046C8
:108B6000894600F057FFFF1F002F044609DD00F083
:108B70006FFF02460B464046494600F07BFF8046A9
:108B80008946F01D072104E004F00F0200F8012DD2
:108B90002411002C01DD491EF6D5491E5CBF0022C0
:108BA00000F8012DF9D5ECE00020194602AA0A448C
:108BB00000E05B1E12F80149491E8442F9D00F28DB
:108BC00004D10DF10900425C521C4254002904D525
:108BD0000198001D02AE5B1C0190591E12D49DF835
:108BE00038007218A0F13A07147804F130085FFADF
:108BF00088F43A2CA8BFB844491E02F80189F3D57D
:108C00008DF83800286B002840F1B080591E296388
:108C1000ACE0404649460022002300F02DFE0199B9
:108C200038BF89F0004947F297504143694A91FBA8
:108C3000F2F20192D2F1070204DD40464946FFF705
:108C40009AFE0AE0524200206349FFF794FE024672
:108C50000B464046494600F07FFF8046662C286B55
:108C6000DFF878B106BF019F0A3706273F18142F97
:108C7000C8BF142730208DF8080089460DF109007F
:108C800000E03046002F34DD06464046494601F0FC
:108C900087F801460A4606F1080304200A26B2FBBB
:108CA000F6F606EB860EA2EB4E02303203F8012CEC
:108CB0000A22B6FBF2F202EB820EA6EB4E0630362B
:108CC000401E03F8026DE9D1083F002F03F10806AA
:108CD000D7DD084601F078F802460B464046494683
:108CE00000F0C8FE00225B4600F0BCFC80468946CE
:108CF000CBE70DF10901401A0DF1090604E00199D5
:108D0000491E401E0191761C31783029F7D0662C1F
:108D100002D10199491C03E0652C0CBF01210021FF
:108D20002B6BCB189842B8BF431E002B1ED4834236
:108D300004DAF05C3528A8BF392000DA3020194663
:108D4000721E02EB010800E05B1E18F80199491E33
:108D50008145F9D0392802D1705C401C705400293B
:108D600004D50198401C16465B1C0190019800B286
:108D700000901BB29DF838103246284600F034F8B7
:108D80002EE0C61D002F3FF7BDAE30460DF10901A4
:108D9000401A009903468842C8BF0B46002B0DF1CC
:108DA00009063FF52FAF8342BFF6FEAE0DF1090075
:108DB000C15C07297FF7F8AE0F20F6E6CBCCCC0CD0
:108DC0000000244002FCFFFFFFFF0F800000E03F97
:108DD0000000F07FA08601000000F03F84D797419B
:108DE0000FB0BDE8F08F00002DE9F84783B00646CC
:108DF0008A461746984600F01BFAB8F1000F406A01
:108E0000356B90F8009002DC4FF00108BFA74AF0E4
:108E10002000BDF93040662808BF641C15D06728C3
:108E200040F0848014F1040FC0F28680AC4280F2DE
:108E3000838096F83800641C010702D4A845B8BFA7
:108E4000454620B22D1A48BF00250FFA84FAF06873
:108E5000B169BAF1000F25DC4A1C30234354002DC0
:108E600003DC96F83800010703D5F06800F802909B
:108E7000521C15EB0A0FB8BF6C4220B24419414294
:108E80004445B8BFA046B26171620FFA88F5F5613A
:108E9000F068B3692A463946184400F077FA641B33
:108EA000B462C4E022B29045084417DA424639461B
:108EB00000F06CFAB0694044B061AAEB0801002DE3
:108EC000716203DC96F838100A0705D5F16801F8DD
:108ED0000090F069401CF061B562A8E0394600F0EE
:108EE00055FAB069002D5044A8EB040803DC96F84D
:108EF00038100A0703D5F16801F80090401CB061F2
:108F00000FFA88F08542F368B069B8BFA8460FFA37
:108F100088F207EB0A01184400F038FAB1690FFA39
:108F200088F00144B161281A706280E0BAF1610FE3
:108F300014D14FF0700A16E0A84504DA96F83810FC
:108F40000A0758BF45466D1E48BF0025BAF1670F96
:108F500014BF4FF0450A4FF0650A04E0BAF1410F23
:108F600008BF4FF0500AB169F368481CB061002D8A
:108F700017F8012B5A5403DC96F838100A071BD552
:108F8000F168431CB36101F80090002D14DDA8F1D5
:108F900001080FFA88F039468542F768B8BFA8463D
:108FA0000FFA88F2F81800F0F1F9B0690FFA88F1B9
:108FB00008446D1AB0617562F068B1690844002C0C
:108FC00080F800A003D42B224270811C03E02D21E5
:108FD00041706442811C00206A460AE023460A244C
:108FE00093FBF4F404EB8405A3EB450302F8013B87
:108FF000401C24B2002CF1DC012806DC4AF02002DF
:10900000652A04BF302201F8012B48B9302001F84D
:10901000010B07E0401E1DF80030303301F8013B22
:109020000028F7DCF268B0691044091AF16196F87B
:10903000380000F0140010280DD17269B169706A0F
:109040008A18F1698218B06A8A188218706B824295
:10905000BCBF821A326204B0BDE8F087F8B505469D
:109060000E4617461C46002074B117F8011BB06865
:10907000A847B06030B1F06A401CF0620020641E66
:10908000F3D1F2BD4FF0FF30F2BD00007072696E97
:1090900074665F733A20256E20646973616C6C6F2F
:1090A000776564007072696E74663A20626164204C
:1090B000256E20617267756D656E74007072696EE1
:1090C00074665F733A206261642025732061726761
:1090D000756D656E740000007072696E74665F7302
:1090E0003A2062616420256C7320617267756D653A
:1090F0006E74000000000000000000006E616E0051
:109100004E414E00696E6600494E46003000F0B494
:109110000246106895681318506803EB5004C007A6
:109120001DD54D441BE013F8017B05F8017B491E5A
:10913000F9D1A0B1B60813F8011B06F00306032EFF
:1091400008BF13F8016B01EB06214942801C29443A
:1091500005D011F8016B05F8016B401EF9D1A3424F
:109160000ED013F8016B16F0030104BF13F8011BB6
:10917000C91C30090F28DAD113F8010B0F30D6E7DC
:10918000F0BC02F10C007047613807E005E0A0F187
:1091900061011A2901D20120704741381A28804103
:1091A000C00F7047A0F10901052901D3202801D182
:1091B0000120704700207047A0F141011A2938BFF3
:1091C000203070471B48704770B45368D418042B84
:1091D00009DA41B1057804F8015B10F8016B16B1AA
:1091E0005B1C491EF3E7536070BC704738B51446EA
:1091F0001D4661B1FFF7E8FF61686A6B2046904742
:109200006FF00102811A02D0491E01D001E003E093
:1092100005E00021616032BD6FF0010032BD4FF00A
:10922000FF3032BDDA6B1047024BDFE7014BF9E745
:109230000148704748020020100200200278C9B29D
:109240008A421AB11CBF10F8012FF9E718BF00209D
:10925000704730B4002513E050F8042BD30744BF07
:10926000A9F101039A18091F042942F8045BFAD2F4
:1092700013468C0744BF15809B1CC90748BF1D704F
:1092800050F8041B0029E7D130BC704780B500B905
:1092900006A005490B681BB122220021984701E076
:1092A00000F09FFD222002BDC8570020636F6E733F
:1092B000747261696E742068616E646C65723A20C4
:1092C000626164206D6573736167650000F101037D
:1092D000810704D010F8011B820781B1FAD102681E
:1092E000A2F10131914311F0803104BF50F8042FF5
:1092F000F6E709BAB1FA81F100EBD100401CC01ABF
:109300007047B1F5807F02D34FF0FF307047017096
:10931000012070470078401E8041C043C00F704755
:10932000C9B2830706D0521E22D310F8013B9942DE
:10933000F7D11FE0083A13D302F1040241EA0121F8
:1093400041EA014150F8043B121F21BF4B40A3F1F9
:10935000013C2CEA030C1CF0803FF3D0C9B2001F83
:10936000083210F8013B521E28BF91EA030FF8D8CB
:1093700018BF0120401E704780B5FFF723FF006C27
:1093800002BD0268531C03601170704762B38B0703
:1093900008D0521E11F8013B00F8013B00F0248078
:1093A0008B07F6D1830740F0208000BF103A07D327
:1093B00030B4B1E83810103AA0E83810F9D230BC17
:1093C000530724BFB1E80810A0E8081044BF51F8C3
:1093D000043B40F8043BD20724BF31F8022B20F8AD
:1093E000022B44BF0B7803707047121F17D35B002A
:1093F00009D151F8043B20F8023B1B0C121F20F846
:10940000023BF6D20BE051F8043B00F8013B1B0A8B
:1094100020F8023B1B0C121F00F8013BF3D238BFAF
:10942000121D521E24BF11F8013B00F8013BF8D871
:10943000704705FFBBBBE1B1B2F5803F80F07E8095
:10944000022A1ED98C46B1FBF2F102FB11C31B04A8
:1094500043EA1043B3FBF2FC02FB1C3380B240EA48
:109460000343B3FBF2F002FB103240EA0C4000234E
:109470007047022A05D98446B0FBF2F002FB10C205
:1094800070474AB105D100F0010249085FEA300097
:10949000704700220023704700F0A6BC0B000200BA
:1094A000002100207047904271EB030CF6D3B3F516
:1094B000803F2FD2F0B5B3FA83F7B1FA81F4A7F168
:1094C0000F0E3D1B5340CEF1200602FA0EF2F3417F
:1094D0005340B5F10F0746D80F3C2C444140C4F12E
:1094E0002006A040F1414140B1FBF3F603FB161109
:1094F000A2FB0645001BA94102D2761E80185941E5
:1095000080EA010221FA0EF362FA0EF200215A40BB
:109510003046F0BD30B4B1FBF3FC03FB1C11A2FBE1
:109520000C45001BA94103D2ACF1010C8018594134
:1095300030BC02460B46604600217047B2F1807F86
:1095400065D3F0B5B2FA82F7B1FA81F4C7F10F062C
:109550003D1B22FA06F307F1110EF24120355A4065
:10956000B5F10F07B8D94140C4F12006A040F14140
:109570004140B1FBF3FC03FB1C11A2FB0C45001B9B
:10958000A94103D2BCF1010C801859410F2F12D30D
:109590000F3FC90341EA5041B1FBF3F603FB16113B
:1095A000A2FB0645D4EBC030A94102D2761E80183A
:1095B000594146EACC3C07B34140C7F12006B840C8
:1095C000F1414140B1FBF3F603FB1611A2FB064546
:1095D000001BA94102D2761E8018594180EA01027F
:1095E00021FA0EF3C7F1200462FA0EF20CFA07F02A
:1095F0005A402CFA04F13043F0BD80EA010221FA0E
:109600000EF3002162FA0EF260465A40F0BD8C461D
:10961000B1FBF2F102FB11C31B0243EA1063B3FB7F
:10962000F2FC02FB1C331B024CEA002043EA1063ED
:10963000B3FBF2FC02FB1C331B024CEA002043EAA2
:109640001063B3FBF2FC02FB1C331B024CEA00204C
:1096500043EA1063B3FBF2FC02FB1C324CEA00202D
:1096600000237047B0B581EA030C0CF0004C40F2C7
:10967000FF7515EA11541DBF15EA1357AC42AF42EE
:1096800039E0E41923EA455343F48013C90241F059
:10969000004141EA505EC7021100A7FB0202002808
:1096A0004FF00000EEFB01204FF00001E3FB07212B
:1096B00018BF42F00102401800214941E3FB0E01AE
:1096C000A4F580640F0302D252004041494154F195
:1096D00001046CDD470872F1004250F1000051EBCB
:1096E0000451A1F580115CBF41EA0C01B0BD4CEA08
:1096F00005510020B0BD05EA1357AC4214BFAF427C
:1097000041E050EA410E1CBF52EA430E02E06146BE
:109710000020B0BD24423C441BD15FEA070EF6D0C6
:10972000090302BF01460020AEF1140EB1FA81F721
:10973000AEEB070401FA07FE0C37C7F1200100FA6F
:1097400007F7C8404EEA000E23EA455343F480135E
:10975000A2E733F00043B3FA83F704BFB2FA82FE04
:1097600077440B3FE41BB7F1200E2FBF02FA0EF334
:10977000BB40C7F1200E22FA0EFE38BF43EA0E03AB
:10978000BA40641C82E750EA410E14BF52EA430E0D
:109790006FF000014FF4001717EB430F8ABF194613
:1097A00017EB410FB5E74CEA05510020B0BDD4F1ED
:1097B0000104B4F120070FDAC4F12007520828BFD2
:1097C00042F0010210FA07F501FA07F7E1BF2A4358
:1097D000E0403843E1400FE0352C98DCC7F120042D
:1097E00052EA400220FA07F218BF42F0010231FAB1
:1097F00007F0A1400A43002172F1004250F100003D
:1098000051EB0C01B0BD000010B5144600F002F899
:10981000226010BDC1F30A5343B14A0012F5001F84
:1098200028D2A3F2FE32A1EB0251704750EA410C5C
:1098300020D001F0004C31EA0C01B1FA81F204BFF2
:10984000B0FA80F3D2180B3AB2F120032CBF00FA21
:1098500003F1914041EA0C013EBFC2F1200C20FA15
:109860000CF319439040524240F2FD33D21A01EBFF
:1098700003517047002270474FF4001C1CEB410F4E
:1098800094BF1CEB430F09E041EA030C50EA4C0C77
:1098900052EA0C0C03D2994208BF9042704714BFA1
:1098A0008B428242704700004FF4001C1CEB410FBA
:1098B00094BF1CEB430F09E041EA030C50EA4C0C47
:1098C00052EA0C0C03D28B4208BF8242704714BF8D
:1098D0009942904270470000124254D440F2FF7CFB
:1098E0001CEA11530FD0634531D09B1863453CBF30
:1098F00001EB0251704701F0004141EA0C51002098
:10990000AFF30080704750EA410320D001F0004CD3
:1099100091EA0C011CD0B1FA81F30B3B9A420DD9AC
:10992000D21A994051EA0C01C3F1200C20FA0CFC28
:1099300061449840531C40F2FF7CD7E7914041EAD4
:109940000C01C2F1200C20FA0CF31943904070472F
:10995000B0FA80F31533202BE0D3202AEED3203A3F
:10996000203B9A4209D9D21A00FA03F141EA0C01CC
:109970000020531C40F2FF7CB8E700FA02F141EAF4
:109980000C0100207047524240F2FF7C1CEA115348
:109990000DD06345DBD0B2EB030C3CBFA1EB025111
:1099A00070470CF1010221EA035141F4801150EAA1
:1099B000410CCCD001F0004C352A27DC30B481EAD0
:1099C0000C01B2F1200309DAC2F12003044601FAC6
:1099D00003F5D0402843D1409C400CE0C3F1200265
:1099E000450020FA03F418BF44F0010421FA03F003
:1099F00091400C43002174F1004550F1000051EBFF
:109A00000C01244230BC7FF47BAF704761460020DC
:109A100076E70000C1F30A5340F2FE329B1A14DDD0
:109A2000D3F120034FEAE17208DDC90241EA505147
:109A300041F00040D84080185040704703F2E130B8
:109A400010B1D24382F00040704700207047000000
:109A5000C11768B14840401AB0FA80F29040D21C59
:109A6000C907C2F5846241EA025202EBD0214005E7
:109A70007047000070B44FF0004591EA030F40F1C9
:109A8000BD816B40841A71EB030603D2001BB14108
:109A9000121973414FF4001C1CEB410F34BF7CEBD7
:109AA000430442E00C0DA4EB1356352E4FDC45EA7F
:109AB000C323DB0A45EAC121C912B6F120050DDD39
:109AC00063FA05F6EB4086EA0305124218BF45F03B
:109AD0000105C01851F100010CD213E062FA06F53D
:109AE000F2405540F3415A40B340F3405A40801889
:109AF000594107D349085FEA30005FEA350528BFBE
:109B000045F0010501F58011420875F1004250F160
:109B1000000041EB04514E0016F5001F70BC38BF29
:109B200070470020090D090570471CEB410F10D24A
:109B300052EA43060BD0BCEB410F05D80C0DAB43EA
:109B4000661E342EB6DD02E0AB438018594170BC6E
:109B5000704770BC70470000F0B540F2FF7581EAB5
:109B6000030C0CF0004C15EA11541DBF15EA1357F5
:109B7000AC42AF42E5E0BC41C1F31301C3F31303B0
:109B8000801A994143F4801304D2641E4000494175
:109B900080185941C90241EA5051B1FBF3F603FB69
:109BA0001611A2FB0675D7EBC020A94102D2761E82
:109BB00080185941C90241EA5051B1FBF3FE03FB41
:109BC0001E11A2FB0E75D7EBC020A94103D2AEF146
:109BD000010E80185941890241EA9051760546EA02
:109BE0008E2EB1FBF3F603FB1611A2FB0675D7EB25
:109BF0008020A94102D2761E80185941C90241EA4B
:109C000050514EEA060EB1FBF3F603FB1611A2FB10
:109C10000675D7EBC020A94102D2761E80185941A3
:109C2000C90241EA5051B1FBF3F703FB1711A2FB44
:109C30000735D3EBC020A94167F100070CBF0042F4
:109C400047F0010766F3D5274FEA1E31B80814F52F
:109C5000806412DDBD0775F1004250EB0E5051EBF0
:109C6000045111F5801F5CBF41EA0C01F0BD4CF0BE
:109C70007F6141F0E0410020F0BDBD076D0840EA82
:109C80000E5041F48011D4F10104B4F120060ADA37
:109C9000C4F120060200E04001FA06F3E140184357
:109CA000B24015430EE0342C13DCC6F1200445EA23
:109CB00040056D0820FA06F2154321FA06F0A1408E
:109CC0000D43002175F1004250F1000051EB0C01F1
:109CD000F0BD00205FEA0C01F0BDCFB992185B41E6
:109CE000B3FA83F704BFB2FA82F6BF190B3FB7F19C
:109CF00020062FBF02FA06F3BB40C7F1200622FA66
:109D000006F638BF3343BA401CB1E419641E33E78A
:109D10007F4231F00041B1FA81F404BFB0FA80F61D
:109D2000A4190B3CB4F120062FBF00FA06F1A140A4
:109D3000C4F1200620FA06F638BF3143A0403C1B90
:109D40001AE7AC421ABF05EA1357AF4212E050EAD5
:109D500041061CBF52EA4306BFE750EA41073046BE
:109D600061461CBF41EA0551F0BD52EA430C08BFF1
:109D7000C143F0BD00204FF4001616EB410F98BF11
:109D800016EB430F08BF16EB410F24BFC14305E09C
:109D900016EB430F0CBF61464CEA0551F0BD0000C5
:109DA000400D491840EA81200CD2490DA1F580618F
:109DB000491C40F0004005DBD1F11F0154BFC840F1
:109DC000C017704700207047014648B1B0FA80F1D3
:109DD0008840C91CC1F58461090501EBD02140050B
:109DE0007047012000F0C0B87047000070B44FF019
:109DF000004591EA030F7FF545AE6B40841A71EB85
:109E0000030604D26E40001BB141121973414FF496
:109E1000001C1CEB410F34BF7CEB430683E00C0DB0
:109E2000A4EB1356362E00F37C80012E45EAC323A3
:109E300041DC43EA525312BFD20292025B0824056E
:109E400045EAC12141EA5051D2EBC020994125D4C5
:109E500007D1B0FA80F610FA06F162D00020203661
:109E600008E0B1FA81F6B140C6F1200220FA02F210
:109E70001143B0404FEAF474B4EB465434F0010699
:109E80004FEA74040AD8D6F50016760D04F00044A3
:109E9000F04061FA06F25040F1404840C00A40EA02
:109EA000415021F0004128BF5FEA500550F1000009
:109EB00044EBD12135E0DB0A45EAC121C90AB6F1FC
:109EC00020050EDD42EA0242120CC5F1200603FA1B
:109ED00006F6EB4042EA06056D42984161F1000149
:109EE0000DE062FA06F5F240554063FA06FC82EA9C
:109EF0000C02F3405A406D42904161EB030111F4B2
:109F0000801F05D1641E620502D06D0040414941A9
:109F100021F48011430875F1004350F1000041EB3A
:109F2000045170BC70471CEB410F15D223F0004365
:109F300052EA43060BD04FEA4C0CBCEB410F04D85D
:109F40000C0D661E342EB7DDEBE7801A994150EAFE
:109F5000410608BF0021E4E708BF1CEB430F28BF00
:109F60006FF00001DDE7000080B5AFF30080024A2A
:109F700011001820ABBEFBE7260002002DE9F04FD0
:109F800085B006000F0090469946DDF838A00F9C7A
:109F9000109D002C07D1502080F31188BFF34F8F04
:109FA000BFF36F8FFEE7002D07D1502080F311889B
:109FB000BFF34F8FBFF36F8FFEE7542000900098E0
:109FC000542807D0502080F31188BFF34F8FBFF380
:109FD0006F8FFEE70098002D19D0002C17D0AB46EC
:109FE000CBF8304002208BF8510000200390CDF8D0
:109FF00008B004A80190CDF800A04B4642463900B5
:10A00000300000F047F8584600F0ADF801E00020BD
:10A010000490049805B0BDE8F08F2DE9F84F84B0A6
:10A0200006000F0090469946DDF838A0DDF83CB0F8
:10A03000404680B2800000F06DFE0500002D0BD080
:10A04000542000F067FE0400002C01D0256304E0DA
:10A05000280000F0EFFE00E00024002C15D00020C6
:10A0600084F85100002003900294CDF804B0CDF89C
:10A0700000A04B46424692B23900300000F00AF888
:10A08000200000F070F8012001E05FF0FF3005B023
:10A09000BDE8F08F2DE9F84F06000C001700984638
:10A0A000DDF828900B9DDDF830A0DAF8300000EBE9
:10A0B0008700001FC008C0000090009810F0070F34
:10A0C00007D0502080F31188BFF34F8FBFF36F8FFD
:10A0D000FEE7002C15D000208346BBF1100F0CD2F8
:10A0E00014F80B000AEB0B0181F8340014F80B0094
:10A0F000002802D01BF1010BEFE700208AF8430093
:10A1000002E000208AF83400B9F1070F01D30620DD
:10A110008146CAF82C90CAF844900020CAF848003A
:10A120001AF1040000F03FFF1AF1180000F03BFFA5
:10A13000CAF810A0D9F10700CAF81800CAF824A07C
:10A140000020CAF84C0000208AF850004246310036
:10A15000009800F067FFCAF80000002D01D0C5F894
:10A1600000A0BDE8F18F38B5040000F0EBFFDFF888
:10A1700038160868401C0860DFF830562868002848
:10A1800006D12C60086801280DD100F079FB0AE0A7
:10A19000DFF81C060068002805D1E06A2968C96A52
:10A1A000884200D32C60DFF80C060168491C01606E
:10A1B000DFF804160A680123E06A83401A430A6044
:10A1C000211DDFF88826E36A1420434302EB0300D5
:10A1D00000F0ECFE00F0D0FFDFF8D40500680028A6
:10A1E0000DD02868C06AE16A884208D25FF08050CA
:10A1F000DFF8B8170860BFF34F8FBFF36F8F31BD23
:10A2000038B505000024002D15D0DFF80C070068D4
:10A21000002807D0502080F31188BFF34F8FBFF381
:10A220006F8FFEE700F027F90021280000F012FDF3
:10A2300000F027F90400002C08D15FF08050DFF80F
:10A24000DC180860BFF34F8FBFF36F8F31BDF8B5D7
:10A25000040000F077FF002C03D1DFF850050568FB
:10A2600000E02500281D00F0C8FE00280FD1DFF80F
:10A27000DC15EA6A142042438858002807D1DFF829
:10A2800038150A680123E86A83409A430A60A86A7D
:10A29000002803D015F1180000F0AFFEDFF8806849
:10A2A000291D300000F082FE95F85000012802D1EF
:10A2B000002085F8500000F05FFFDFF8F474386884
:10A2C000002805D000F03EFF00F04AFB00F054FFEC
:10A2D000DFF8D8140868854224D13868002816D0E1
:10A2E000DFF834060068002807D0502080F311887A
:10A2F000BFF34F8FBFF36F8FFEE75FF08050DFF843
:10A30000AC160860BFF34F8FBFF36F8F0AE0306861
:10A31000DFF894241268904202D10020086001E026
:10A3200000F0A9F9F1BD10B4020000201300002ACA
:10A3300007D1502181F31188BFF34F8FBFF36F8F87
:10A34000FEE75969DFF8D847A14209D1996ADFF8D9
:10A35000D848A14204D0996A002901D101210800FE
:10A3600010BC704770B504002500002C07D15020A8
:10A3700080F31188BFF34F8FBFF36F8FFEE7DFF8D5
:10A380002C64306885422DD0002D2BD000F0DAFEF1
:10A390002800FFF7C8FF002822D0281D00F02DFE5E
:10A3A000DFF814140A680123E86A83401A430A603C
:10A3B000291DDFF89824EB6A1420434302EB0300C5
:10A3C00000F0F4FDE86A3168C96A884208D35FF09A
:10A3D0008050DFF848170860BFF34F8FBFF36F8FCF
:10A3E00000F0CAFE70BD10B586B0002004900020B9
:10A3F000039005AA03A904A800F016FFDFF82C4873
:10A400000498029003980190002000900023059A80
:10A41000DFF81C180FF24540FFF7B0FD2060206800
:10A42000002801D0012400E00024012C16D1502086
:10A4300080F31188BFF34F8FBFF36F8F5FF0FF3052
:10A44000DFF8F01708600120DFF8641308600020CF
:10A45000DFF8E417086000F00EFE0AE014F1010FC7
:10A4600007D1502080F31188BFF34F8FBFF36F8F58
:10A47000FEE706B010BDDFF8A0040168491C0160CA
:10A480007047F8B500250026DFF88C4420680028C6
:10A4900007D1502080F31188BFF34F8FBFF36F8F28
:10A4A000FEE700F04FFE2068401E20602068002874
:10A4B00057D1DFF8F4020068002852D0DFF868179F
:10A4C0000868002827D0C868C068050015F1180082
:10A4D00000F093FD281D00F090FDDFF8DC120A6803
:10A4E0000123E86A83401A430A60291DDFF85C23D0
:10A4F000EB6A1420434302EB030000F057FDE86AC7
:10A50000DFF8A8120968C96A8842D7D30120DFF8AA
:10A5100038170860D2E7002D01D000F021FADFF8EB
:10A520001C773C68002C0CD000F01FF8002803D0EA
:10A530000120DFF814170860641E002CF4D10020FD
:10A540003860DFF80407006800280AD00120060000
:10A550005FF08050DFF8C4150860BFF34F8FBFF382
:10A560006F8F00F009FE3000F2BD2DE9F0410027A9
:10A57000DFF8A403006800286ED1DFF8BC06046889
:10A58000641C0460002C1CD1DFF8B4160868006855
:10A59000002807D0502080F31188BFF34F8FBFF3FE
:10A5A0006F8FFEE7D1F80080DFF8980602680A6036
:10A5B000C0F80080DFF894060168491C016000F0D3
:10A5C000CFF9DFF87086D8F80000844238D3DFF87E
:10A5D000701608680068002804D15FF0FF30C8F8E2
:10A5E00000002DE00868C068C068050068680600C3
:10A5F000B44202D2C8F8006022E0281D00F0FDFC41
:10A60000A86A002803D015F1180000F0F6FC6A498A
:10A610000A680123E86A83401A430A60291D8B4AAD
:10A62000EB6A1420434302EB030000F0BFFCE86A2E
:10A630005E490968C96A8842C9D301200700C6E794
:10A640005A4800688149C26A142042438858022847
:10A6500007D30120070004E0DFF8E0050168491C8A
:10A660000160DFF8E4050068002801D00120070040
:10A670003800BDE8F081DFF8A0020068002804D0AF
:10A680000120DFF8C41508602BE00020DFF8B815C2
:10A69000086049480068B0FA80F1D1F11F01142226
:10A6A0006A4B02FB01F01858002807D1502080F3B4
:10A6B0001188BFF34F8FBFF36F8FFEE702FB01F2EC
:10A6C00003EB0200426852684260426810F10803DE
:10A6D0009A4202D14268526842604068C068334A78
:10A6E0001060704738B504000D00002C07D15020D1
:10A6F00080F31188BFF34F8FBFF36F8FFEE7DFF852
:10A70000D805006810F11801200000F05BFC012161
:10A71000280000F09FFA31BD38B50500E868C4682C
:10A72000002C07D1502080F31188BFF34F8FBFF367
:10A730006F8FFEE714F1180000F05FFC76480068A8
:10A74000002813D1201D00F058FC1B490A68012382
:10A75000E06A83401A430A60211D3C4AE36A1420E0
:10A76000434302EB030000F021FC05E014F1180163
:10A77000DFF8B40400F01AFC0C480068C06AE16A13
:10A78000884205D201200121DFF8C424116000E0D5
:10A79000002032BDDFF8B41409680160DFF83C1511
:10A7A00009684160704700009857002088570020D2
:10A7B000A4570020B4570020A05700202DE9F041F5
:10A7C00004000D00002C07D1502080F31188BFF346
:10A7D0004F8FBFF36F8FFEE7002D07D1502080F31E
:10A7E0001188BFF34F8FBFF36F8FFEE700F0AAFC15
:10A7F000DFF8440406686768F71B286810F1010F4A
:10A8000002D15FF000081BE0DFF840040068216817
:10A81000884205D06068864202D35FF001080FE0ED
:10A820002868874208D22868C01B28602000FFF7EC
:10A83000B1FF5FF0000803E0002028605FF001082E
:10A8400000F09AFC4046BDE8F0810000444E002034
:10A850000120DFF8FC1308607047000010B5040009
:10A8600000F03AF8DFF8780400680228F8D35FF0C7
:10A870008050AA490860BFF34F8FBFF36F8FEFE797
:10A8800070B50024072C09D2DFF85404142101FB11
:10A8900004F1084400F078FB641CF3E7DFF844544B
:10A8A000280000F071FBDFF84064300000F06CFB22
:10A8B000DFF8740300F068FB064800F065FB984879
:10A8C00000F062FBDFF878030560DFF82004066023
:10A8D00070BD0000C456002038B5DFF81454286855
:10A8E000002817D000F02EFCDFF80804C068C0680C
:10A8F0000400201D00F081FBDFF8FC030168491E05
:10A9000001602868401E286000F036FC200000F03E
:10A9100005F8E2E731BD0000C057002010B5040083
:10A9200094F85100002806D1206B00F083FA200033
:10A9300000F080FA13E094F85100012803D12000C0
:10A9400000F078FA0BE094F85100022807D050206C
:10A9500080F31188BFF34F8FBFF36F8FFEE710BDF9
:10A96000DFF8DC2210680068002805D15FF0FF30B6
:10A97000DFF8C022106007E01068C068C0680100FE
:10A980004868DFF8B02210607047DFF87003006895
:10A99000002801D1012007E0DFF8640300680028E7
:10A9A00001D1022000E000207047000004ED00E02B
:10A9B0002DE9F843040025000026002C52D0DFF8D2
:10A9C0001893E86AD9F80010C96A884242D2A86987
:10A9D000002805D4D9F80000C06AD0F10700A861AA
:10A9E000DFF8FC725FF014086869E96A08FB01F19E
:10A9F0003944884227D1281D00F0FFFA00280DD1E4
:10AA0000E86A08FB00F03858002807D1DFF8F41294
:10AA10000A680123E86A83409A430A60D9F8000073
:10AA2000C06AE862DFF8DC120A680123E86A834042
:10AA30001A430A60291DE86A08FB00F807EB0800C2
:10AA400000F0B4FA03E0D9F80000C06AE86201201F
:10AA5000060007E0686CD9F80010C96A884201D284
:10AA6000012006003000BDE8F28370B50400250027
:10AA70000026002C50D0DFF860020068854207D025
:10AA8000502080F31188BFF34F8FBFF36F8FFEE725
:10AA9000A86C002807D1502080F31188BFF34F8F96
:10AAA000BFF36F8FFEE7A86C401EA864E86A696C6C
:10AAB000884231D0A86C00282ED1281D00F09DFAC4
:10AAC00000280FD1DFF81812EA6A14204243885890
:10AAD000002807D1DFF82C120A680123E86A8340B6
:10AAE0009A430A60686CE862E86AD0F10700A861DE
:10AAF000DFF810120A680123E86A83401A430A60EB
:10AB0000291DDFF8DC21EB6A1420434302EB03002C
:10AB100000F04CFA01200600300070BD04ED00E0AA
:10AB2000D85600202DE9F84F04000F00A0465FF032
:10AB30000109002C6BD0D8F84800002807D150201C
:10AB400080F31188BFF34F8FBFF36F8FFEE7D8F804
:10AB50004400B84201D23E0002E0D8F844000600AA
:10AB6000D8F82C00B04252D0D8F8480048454ED111
:10AB7000DFF864010068804507D1502080F3118818
:10AB8000BFF34F8FBFF36F8FFEE7D8F82C0005009F
:10AB9000C8F82C60D8F81800002803D4D6F10700B4
:10ABA000C8F81800DFF838A15FF0140BD8F81400CB
:10ABB0000BFB05F15144884229D118F1040000F043
:10ABC0001CFA002810D1D8F82C000BFB00F05AF822
:10ABD0000000002808D1DFF82C110A680123D8F8FA
:10ABE0002C0083409A430A60DFF818110A68012399
:10ABF000D8F82C0083401A430A6018F10401D8F8F1
:10AC00002C000BFB00FB0AEB0B0000F0CFF9BDE8BA
:10AC1000F18FDFF8C4100868002803D00868826C40
:10AC2000521C826408687047B0560020BC57002050
:10AC3000BC3D0108B85700209C570020A8570020B1
:10AC40008C57002090570020AC570020B0570020B0
:10AC5000AC5700202DE9F04105000C001F480768A3
:10AC6000DFF87480D8F80000001D00F0C6F9002855
:10AC700008D1D8F8000023490A680123C06A83403C
:10AC80009A430A6015F1010F08D1002C06D0D8F8BC
:10AC90000000011D1C4800F089F91AE0E8190600BF
:10ACA000D8F800004660BE4207D2D8F80000011D67
:10ACB0000E48006800F086F90BE0D8F80000011D8E
:10ACC0001248006800F07EF9114801688E4200D2F7
:10ACD0000660BDE8F0810000885700209C570020E6
:10ACE000444E0020885600209C560020905700209B
:10ACF00094570020C456002098570020A4570020E5
:10AD0000C0570020A0570020D85600208C570020A4
:10AD1000B85700202DE9F84F04005FF00008FFF756
:10AD2000AAFBDFF84892D9F80000002801D100F012
:10AD3000BBF8DFF83CA2DAF80000044269D1002C2D
:10AD400015D08C480068041914F0070F0FD014F1C7
:10AD5000080014F00704041B14F0070F07D050205C
:10AD600080F31188BFF34F8FBFF36F8FFEE7002C86
:10AD70004FD0DFF804B2DBF80000A04249D37F488F
:10AD80000600006805006868A04205D2286800280F
:10AD900002D02E002D68F6E7D9F80000854238D0A1
:10ADA0007448316802681144884629683160006837
:10ADB00040006968091B884215D205EB04000700B2
:10ADC00017F00700002807D0502080F31188BFF348
:10ADD0004F8FBFF36F8FFEE76868001B78606C6071
:10ADE000380000F092F8DBF800106868091ACBF818
:10ADF00000106348DBF800100268914202D2DBF8D1
:10AE0000001001606968DAF8000001436960002001
:10AE10002860FFF736FB18F00700002807D0502005
:10AE200080F31188BFF34F8FBFF36F8FFEE740466B
:10AE3000BDE8F28F70B504002600002C33D04D48D9
:10AE40000068404206443500494968680A68104273
:10AE500007D1502080F31188BFF34F8FBFF36F8F5E
:10AE6000FEE72868002807D0502080F31188BFF340
:10AE70004F8FBFF36F8FFEE768680A68104212D0E9
:10AE8000286800280FD16A68086882436A60FFF763
:10AE9000F2FA39490A68686882180A60280000F0E6
:10AEA00034F8FFF7EEFA70BD70B442F21072354814
:10AEB000010011F0070F04D0C91DC908C900521ABA
:10AEC00082180B002D48036000244460D4182948E0
:10AED0000068241AE408E400244D2C6000202E6849
:10AEE000706000202E6830601800261A46602D68B9
:10AEF00005604568224E356045681F4E35605FF03D
:10AF000000451B4E356070BC704730B41B4A116859
:10AF1000814201D21268FAE714005168214481424B
:10AF200004D153684168CB18536010000300416896
:10AF300019441568A94210D10C4914680D68AC4237
:10AF400008D04468116849680C19446011680968A0
:10AF5000016004E00968016001E01168016082425B
:10AF600000D0106030BC704700000000685700201F
:10AF700074570020CC3D01086C570020305700204A
:10AF8000705700208C03002010F1080141605FF031
:10AF9000FF31816010F10801C16010F10801016109
:10AFA00000210160704700210161704742684A60DA
:10AFB00093688B60936859609160086103685B1CBB
:10AFC0000360704710B40B6813F1010F01D10269DF
:10AFD00007E010F1080254682468A34201D35268C4
:10AFE000F9E754684C604C68A1608A605160086160
:10AFF0000468641C046010BC7047010008698A681A
:10B000004B689A604A688B685A6042688A4201D1EC
:10B010008A68426000220A610268521E026000686B
:10B0200070470000001F5FF080730360001F4B0833
:10B030005B000360001F0FF2150303601438026009
:10B04000001F7FF002030360203870475F480068EC
:10B0500010F1010F07D0502080F31188BFF34F8FFC
:10B06000BFF36F8FFEE7502080F31188BFF34F8F3F
:10B07000BFF36F8FFEE7E0B555480168554A91422E
:10B0800007D1502080F31188BFF34F8FBFF36F8F2C
:10B09000FEE700685049884207D1502080F31188AC
:10B0A000BFF34F8FBFF36F8FFEE74C4801780191DC
:10B0B000FF21017001788DF800109DF8001011F04B
:10B0C0005001474A1170474907220A609DF8002045
:10B0D000120608D50A68521E0A609DF80020520028
:10B0E0008DF80020F2E70A68D2F10702042A07D09F
:10B0F000502181F31188BFF34F8FBFF36F8FFEE7AD
:10B100000A6812020A600A6812F4E0620A60019991
:10B1100001703548016851F470010160016851F017
:10B120007041016000F066F800202849086000F0D6
:10B1300049F92E48016851F04041016000F032F9B0
:10B1400000200EBD502080F31188BFF34F8FBFF356
:10B150006F8F1E490A68521C0A60096801290AD1CA
:10B1600023490968090606D080F31188BFF34F8F81
:10B17000BFF36F8FFEE7704714490868002807D1B6
:10B18000502080F31188BFF34F8FBFF36F8FFEE71E
:10B190000868401E08600868002802D1002080F37B
:10B1A0001188704780B5502080F31188BFF34F8F0E
:10B1B000BFF36F8FFFF7D9F9002803D05FF08050FD
:10B1C0000B490860002080F3118801BD04000020B5
:10B1D00000ED00E071C20F4170C20F4100E400E0D9
:10B1E000D45700208057002020ED00E034EF00E02D
:10B1F00004ED00E00848002101600021074A1160C9
:10B20000074909684FF47A72B1FBF2F1491E054A09
:10B21000116007210160704710E000E018E000E0D5
:10B220000C00002014E000E02F4B03602F4B0B605C
:10B2300080231360704700B5A9B02D48D0E90023E2
:10B24000CDE9042304A800F019F92A4908602A4826
:10B25000D0E90023CDE9022302A800F00FF9274925
:10B2600008602748D0E90023CDE90023684600F0B4
:10B2700005F92449086022A823491C22FEF796F804
:10B28000002122A800F0BCF8204908601BA8204932
:10B290001C22FEF78BF800211BA800F0B1F81D4915
:10B2A000086014A81C491C22FEF780F8002114A88D
:10B2B00000F0A6F8194908600DA819491C22FEF7EC
:10B2C00075F800210DA800F09BF81649086006A843
:10B2D00015491C22FEF76AF8002106A800F090F834
:10B2E0001249086029B000BD18530020884600208C
:10B2F000443D01085C5700204C3D01086057002088
:10B30000543D0108645700209C360108485700202E
:10B31000B83601084C570020D43601085057002099
:10B32000F0360108545700200C3701085857002008
:10B33000EFF30980BFF36F8F264B1A681EF0100FD2
:10B3400008BF20ED108A20E9F04F106009B44FF0DB
:10B35000500080F31188BFF34F8FBFF36F8FFFF75B
:10B360008AF94FF0000080F3118809BC1968086859
:10B37000B0E8F04F1EF0100F08BFB0EC108A80F359
:10B380000988BFF36F8F7047124B19680868B0E8DF
:10B39000F04F80F30988BFF36F8F4FF0000080F308
:10B3A000118870470C480068006880F308884FF0E7
:10B3B000000080F3148862B661B6BFF34F8FBFF30D
:10B3C0006F8F00DFDFF81400016841F47001016045
:10B3D000704700008857002008ED00E088ED00E08D
:10B3E000010000200A0012B2842A03D00A0012B21F
:10B3F000D21C1018704780B5FEF7F5FF002002BD83
:10B4000038B584B004000D006069002813D0A0692D
:10B41000002810D0B4F90800FFF7E2FFA1690291FB
:10B420006169019100902B00226921686068FEF734
:10B43000A5FD039011E0B4F90800FFF7D1FF03A9BF
:10B44000019100902B00226992B221686068FEF79A
:10B45000E4FD012801D0002000E0039805B030BDD4
:10B4600038B505000120B5FBF0F4002C01D0200018
:10B4700000E00120FEF7C4FE002032BD10B504003C
:10B480006068002804D06168012000F018F902E02B
:10B49000012000F004F910BD70B506000C00350065
:10B4A000002D07D1502080F31188BFF34F8FBFF3D9
:10B4B0006F8FFEE7FFF746FE2968EA6B286C424370
:10B4C00001EB0200A8600020A86328686860296872
:10B4D000EA6B521E286C424301EB0200E8605FF009
:10B4E000FF3085F8440085F84500002C12D128690A
:10B4F000002817D015F11000FFF70EF9002811D021
:10B500005FF08050DFF82C150860BFF34F8FBFF35A
:10B510006F8F07E015F11000FFF736FD15F12400DD
:10B52000FFF732FDFFF728FE012070BD2DE9F8433B
:10B5300006000C0015001F00DDF82090002E07D13A
:10B54000502080F31188BFF34F8FBFF36F8FFEE75A
:10B55000002F07D1502080F31188BFF34F8FBFF326
:10B560006F8FFEE7002D01D0002C01D0012000E0FC
:10B570000020C0B2002807D1502080F31188BFF30B
:10B580004F8FBFF36F8FFEE7002D01D1002C01D14B
:10B59000012000E00020C0B2002807D1502080F335
:10B5A0001188BFF34F8FBFF36F8FFEE748200090E5
:10B5B0000098482807D0502080F31188BFF34F8FA0
:10B5C000BFF36F8FFEE70098B846B8F1000F0BD0BD
:10B5D000012088F84600CDF800804B46DBB22A00F7
:10B5E0002100300000F031F84046BDE8F2832DE93B
:10B5F000F84304000D001700002C07D1502080F301
:10B600001188BFF34F8FBFF36F8FFEE7002D02D17C
:10B610005FF0000901E005FB04F919F14800FFF7AC
:10B6200079FB0600002E0DD0300048308046002007
:10B6300086F8460000963B00DBB242462900200017
:10B6400000F003F83000BDE8F2832DE9F041050079
:10B650000C0016001F00DDF81880002C02D1C8F87D
:10B66000008001E0C8F80060C8F83C50C8F84040CD
:10B6700001214046FFF710FFBDE8F08110B504003E
:10B68000002C0BD00020A060002020600020E06093
:10B69000002300220021200000F028F810BDF8B59A
:10B6A0000400012600272200D2B239003000FFF743
:10B6B0009EFF05002800FFF7E1FF2800F2BD2DE9FD
:10B6C000FC4104000D0001275FF000082000C0B21B
:10B6D00000902B00002241463800FFF727FF0600AC
:10B6E0003000FFF7CBFF3000BDE8F6812DE9F743CE
:10B6F00080460D00994600244646002E07D1502072
:10B7000080F31188BFF34F8FBFF36F8FFEE7002DDB
:10B7100002D1306C002801D1012000E00020C0B22D
:10B72000002807D1502080F31188BFF34F8FBFF35B
:10B730006F8FFEE7B9F1020F02D1F06B012801D142
:10B74000012000E00020C0B2002807D1502080F383
:10B750001188BFF34F8FBFF36F8FFEE7FFF715F927
:10B76000002802D10298002801D1012000E0002029
:10B77000C0B2002807D1502080F31188BFF34F8F4B
:10B78000BFF36F8FFEE7FFF7DDFCB06BF16B884214
:10B7900002D3B9F1020F27D14A462900300000F048
:10B7A00056F90700706A00280FD016F12400FEF742
:10B7B000B3FF002814D05FF08050DFF878120860E3
:10B7C000BFF34F8FBFF36F8F0AE0002F08D05FF0F9
:10B7D0008050DFF860120860BFF34F8FBFF36F8FA8
:10B7E000FFF7CAFC012052E00298002803D1FFF7BE
:10B7F000C3FC00204BE0002C04D16846FEF7CAFFD2
:10B8000001200400FFF7B8FCFEF735FEFFF79AFCB5
:10B8100096F9440010F1010F02D1002086F844008F
:10B8200096F9450010F1010F02D1002086F845007D
:10B83000FFF7A2FC02A96846FEF7C0FF002820D14E
:10B84000300000F097F9002815D0029916F1100089
:10B85000FEF748FF300000F048F9FEF712FE00281E
:10B8600091D15FF08050DFF8CC110860BFF34F8FAB
:10B87000BFF36F8F87E7300000F037F9FEF701FE66
:10B8800081E7300000F031F9FEF7FBFD0020BDE854
:10B89000FE832DE9F34182B080460024474600250F
:10B8A000002F07D1502080F31188BFF34F8FBFF3D3
:10B8B0006F8FFEE7386C002807D0502080F3118886
:10B8C000BFF34F8FBFF36F8FFEE7FFF75EF80028DF
:10B8D00002D10398002801D1012000E00020C0B26D
:10B8E000002807D1502080F31188BFF34F8FBFF39A
:10B8F0006F8FFEE7FFF726FCBE6B002E1CD0701E7C
:10B90000B8633868002802D1FFF783F9B860386956
:10B9100000280DD017F11000FEF7FEFE002807D01A
:10B920005FF0805043490860BFF34F8FBFF36F8FC4
:10B93000FFF722FC01207AE0039800280DD1002DAA
:10B9400007D0502080F31188BFF34F8FBFF36F8F64
:10B95000FEE7FFF711FC002069E0002C04D16846E7
:10B96000FEF718FF01200400FFF706FCFEF783FD39
:10B97000FFF7E8FB97F9440010F1010F02D1002016
:10B9800087F8440097F9450010F1010F02D100201B
:10B9900087F84500FFF7F0FB03A96846FEF70EFFA6
:10B9A00000282AD1380000F0D7F800281FD03868C6
:10B9B000002807D1FFF7C6FBB868FEF7F9FF0500BE
:10B9C000FFF7DAFB039917F12400FEF78BFE38002E
:10B9D00000F08BF8FEF755FD00288BD15FF080500A
:10B9E00014490860BFF34F8FBFF36F8F82E73800B1
:10B9F00000F07BF8FEF745FD7CE7380000F075F8B5
:10BA0000FEF73FFD380000F0A7F800283FF472AFC2
:10BA1000002D0BD0FFF796FB380000F00DF8060064
:10BA20003100B868FFF77EF8FFF7A6FB002004B0EE
:10BA3000BDE8F08104ED00E00100486A002804D070
:10BA4000086B0068D0F1070000E0002070472DE986
:10BA5000F84F06000F0014005FF00008B56B306C63
:10BA6000002809D1306800283AD1B068FEF7FDFF00
:10BA700080460020B06033E0002C14D1D6F840900E
:10BA8000BA46D6F804B04A4651465846FDF77EFC01
:10BA90007068316C084470607068B16888421FD368
:10BAA000306870601CE0D6F84090BA46D6F80CB00A
:10BAB0004A4651465846FDF769FCF068316C4942E8
:10BAC0000844F060F0683168884204D2B068316C94
:10BAD00049420844F060022C02D1002D00D06D1EB6
:10BAE000681CB0634046BDE8F28FF8B50400FFF76C
:10BAF00029FB94F94550280040B201280CDB606A0C
:10BB0000002809D014F12400FEF706FE002801D019
:10BB1000FEF79EFE6D1EEEE75FF0FF3684F845608F
:10BB2000FFF72AFBFFF70EFB94F94470380040B290
:10BB300001280CDB2069002809D014F11000FEF761
:10BB4000EBFD002801D0FEF783FE7F1EEEE784F8B0
:10BB50004460FFF711FBF1BD38B50400FFF7F2FABE
:10BB6000A06B002801D1012500E00025FFF704FBB0
:10BB7000280032BD38B50400FFF7E4FAA06BE16B92
:10BB8000884201D1012500E00025FFF7F5FA2800E1
:10BB900032BD000010B50400002C01D1012033E0BB
:10BBA000A0690028FFD194F83900002805D10020B1
:10BBB00084F83800200000F083FE242084F8390047
:10BBC0002068C06830F400502168C860200000F090
:10BBD0004FFB2068006930F49040216808612068BC
:10BBE000406930F02A00216848612068C06850F43C
:10BBF00000502168C8600020E063202084F83900EC
:10BC0000202084F83A00002010BD2DE9FC470500F3
:10BC10000C0016001F005FF0000A95F8390020287C
:10BC200060D1002C03D0300080B2002801D1012067
:10BC300059E095F83800012801D1022053E0012095
:10BC400085F838000020E863212085F8390000F0ED
:10BC5000D7FF8146AE84EE84002085F83800E88C5A
:10BC600000282FD0E88C401EE884A868B0F5805FDB
:10BC700018D100974B4600228021280000F0FCF9E3
:10BC8000002801D003202EE0A046B8F80000C0052F
:10BC9000C00D296848602869002801D1A41CDEE78E
:10BCA000641CDCE700974B4600228021280000F04E
:10BCB000E3F9002801D0032015E0207829684860C6
:10BCC000641CCCE700974B4600224021280000F07E
:10BCD000D3F9002801D0032005E0202085F83900A1
:10BCE000002000E00220BDE8F68773B504001500CF
:10BCF00094F83900202841D10198002803D0280069
:10BD000080B2002801D1012039E094F838000128E0
:10BD100001D1022033E0012084F83800019820622C
:10BD2000A584E5840020E063212084F839000FF227
:10BD30005920216BC8630FF28520216B08640FF234
:10BD4000E120216BC8640020216B086501AE2B0047
:10BD50009BB22068021D3168206B00F0C8FF7FF0A5
:10BD6000400021680860002084F83800206840699D
:10BD700050F0800021684861002000E0022076BD7C
:10BD800073B50400150094F83A00202851D10198A9
:10BD9000002803D0280080B2002801D1012049E00A
:10BDA00094F83800012801D1022043E0012084F8F2
:10BDB00038000198A062A5850020E063222084F865
:10BDC0003A000FF20920616BC8630FF24520616BE6
:10BDD00008640FF24D20616BC8640020616B086538
:10BDE00001AE2B009BB232682068011D606B00F031
:10BDF0007EFF002000902068006800902068406866
:10BE000000900098002084F838002068C06850F442
:10BE100080702168C8602068406950F00100216886
:10BE200048612068406950F0400021684861002066
:10BE300000E0022076BD2DE9F8430600306807686F
:10BE40003068D0F80C803068D0F8149000200025BD
:10BE500017F00F04002C08D1B80606D55FEA8860F9
:10BE600003D5300000F0ADF98BE0002C77D05FEA0D
:10BE7000C97002D418F4907F71D017F00100C0B2DD
:10BE8000002806D05FEAC85003D5F06B50F00100DF
:10BE9000F063780708D519F00100C0B2002803D07C
:10BEA000F06B50F00200F063B80708D519F00100FC
:10BEB000C0B2002803D0F06B50F00400F0633807E4
:10BEC0000BD55FEA886004D419F00100C0B20028E5
:10BED00003D0F06B50F00800F063F06B00283DD009
:10BEE000B80605D55FEA886002D5300000F069F930
:10BEF00030684069800910F001000500F06B000710
:10BF000001D4002D25D0300000F0F7F830684069EA
:10BF100040061AD53068406930F040003168486109
:10BF2000706B00280DD00FF2F510716B0865706B07
:10BF300000F023FF002811D0706B716B096D8847EA
:10BF40000CE0300001F0B6F808E0300001F0B2F883
:10BF500004E0300001F0AEF80020F06311E0380694
:10BF600006D55FEA086003D5300000F0E3F808E08A
:10BF7000780606D55FEA486003D5300000F011F975
:10BF8000FFE7BDE8F183000038B50400A56B206829
:10BF90000068C0050ED40020E8842868406930F0AD
:10BFA0008000296848612868C06850F0400029680E
:10BFB000C86002E0280000F0E9FD31BD38B504009A
:10BFC000A56B280001F077F831BD000038B50400FA
:10BFD000A56B20680068C00516D40020E885286895
:10BFE000C06830F480702968C860286840694008DB
:10BFF0004000296848612868406930F0400029689D
:10C000004861202085F83A00280000F09BFD31BDF2
:10C0100038B50400A56B280000F0AEFD31BD00006E
:10C02000F8B506000020B76B39684C69E40914F0D4
:10C03000010497F83910212906D1002C04D00020E2
:10C04000F884380000F04FF838684569AD0915F0FC
:10C05000010597F83A00222806D1002D04D00020CF
:10C06000F885380000F049F8F86B50F01000F863DC
:10C07000380001F01FF8F1BD2DE9F04105000E0078
:10C0800090461F00069C286800683040B04201D1ED
:10C09000012000E000204146C9B2884220D114F1BD
:10C0A000010FF0D0002C04D000F0AAFDC01B844288
:10C0B000E9D22868C06830F4D0702968C860286860
:10C0C00040694008400029684861202085F839000F
:10C0D000202085F83A00002085F83800032000E091
:10C0E0000020BDE8F0810168C96831F0C001026834
:10C0F000D160202180F8391070470168C96831F497
:10C1000090710268D1600168496949084900026874
:10C110005161202180F83A107047000038B50400C2
:10C12000A56B0020E8850020E884280000F0C2FF0D
:10C1300031BD0000010091F8390021282FD1886815
:10C14000B0F5805F11D1086A02001088C005C00DEB
:10C150000B6858600869002803D1086A801C0862CF
:10C1600009E0086A401C086205E0086A431C0B628B
:10C1700000780B685860C88C401EC88480B20028C4
:10C180000BD10868C06830F080000B68D860086880
:10C19000C06850F040000B68D860002000E002202A
:10C1A000704710B504002068C06830F04000216876
:10C1B000C860202084F83900200000F0E7FC00204F
:10C1C00010BD38B5040094F83A0022284ED1A0687A
:10C1D000B0F5805F16D1A06A05002069002808D15B
:10C1E00020684068C005C00D2880A06A801CA0623D
:10C1F0001AE02068406800F0FF002880A06A401C18
:10C20000A06211E02069002806D1A06A411CA16249
:10C2100021684968017007E0A06A411CA162216899
:10C22000496811F07F010170E08D401EE08580B209
:10C23000002819D12068C06830F020002168C8604B
:10C240002068C06830F480702168C8602068406948
:10C250004008400021684861202084F83A0020000E
:10C2600000F070FC002002E0002000E0022032BD5F
:10C270002DE9F14F84B004980068016931F4405110
:10C280000498C068014304980068016104988168BB
:10C290000498006901430498406901430498C06907
:10C2A0000143029104980068C168DFF898050140D5
:10C2B0000298014304980068C160049800684169CD
:10C2C00031F4407104988069014304980068416129
:10C2D0000498C069B0F5004F40F05B810498006895
:10C2E000DFF86415884206D004980068DFF85C1512
:10C2F000884240F0A78000F08DFF80465FF064091F
:10C30000022400251926002742460023A6FB02012D
:10C3100006FB031107FB021182468B460498406816
:10C320000021A4FB002304FB013305FB003350462E
:10C330005946FDF77FF86421B0FBF1F001904246C9
:10C340000023A6FB020106FB031107FB0211824634
:10C350008B46049840680021A4FB002304FB0133B2
:10C3600005FB003350465946FDF764F800904246FD
:10C370000023A6FB020106FB031107FB0211824604
:10C380008B46049840680021A4FB002304FB013382
:10C3900005FB003350465946FDF74CF86421B0FBCD
:10C3A000F1F1009809FB1101C80032306421B0FBA3
:10C3B000F1F0400010F4F870019910EB01100090BA
:10C3C00042460023A6FB020106FB031107FB0211F4
:10C3D00082468B46049840680021A4FB002304FB9E
:10C3E000013305FB003350465946FDF723F88246DA
:10C3F0004046002102000B00A6FB020106FB0311D0
:10C4000007FB0211049A5268002316001F00A4FBC8
:10C41000062304FB073305FB0633FDF70BF8642105
:10C42000B0FBF1F009FB10A95FEAC90032306421CA
:10C43000B0FBF1F111F007010098091804980068A9
:10C440008160FCE100F0DBFE80465FF064090224BD
:10C4500000251926002742460023A6FB020106FB01
:10C46000031107FB021182468B46049840680021A5
:10C47000A4FB002304FB013305FB0033504659465F
:10C48000FCF7D8FF6421B0FBF1F001904246002395
:10C49000A6FB020106FB031107FB021182468B4635
:10C4A000049840680021A4FB002304FB013305FB32
:10C4B000003350465946FCF7BDFF0090424600232A
:10C4C000A6FB020106FB031107FB021182468B4605
:10C4D000049840680021A4FB002304FB013305FB02
:10C4E000003350465946FCF7A5FF6421B0FBF1F13B
:10C4F000009809FB1101C80032306421B0FBF1F053
:10C50000400010F4F870019910EB011000904246C1
:10C510000023A6FB020106FB031107FB0211824662
:10C520008B46049840680021A4FB002304FB0133E0
:10C5300005FB003350465946FCF77CFF82464046D7
:10C54000002102000B00A6FB020106FB031107FB02
:10C550000211049A5268002316001F00A4FB062350
:10C5600004FB073305FB0633FCF764FF6421B0FBD3
:10C57000F1F009FB10A95FEAC90032306421B0FB79
:10C58000F1F111F007010098091804980068816022
:10C5900055E104980068AC49884205D004980068C9
:10C5A000AA49884240F0A68000F034FE8046042468
:10C5B00000255FF064091926002742460023A6FBE8
:10C5C000020106FB031107FB021182468B46049809
:10C5D00040680021A4FB002304FB013305FB00336A
:10C5E00050465946FCF726FF6421B0FBF1F001905C
:10C5F00042460023A6FB020106FB031107FB0211C2
:10C6000082468B46049840680021A4FB002304FB6B
:10C61000013305FB003350465946FCF70BFF0090F1
:10C6200042460023A6FB020106FB031107FB021191
:10C6300082468B46049840680021A4FB002304FB3B
:10C64000013305FB003350465946FCF7F3FE6421E5
:10C65000B0FBF1F1009809FB1101080132306421AF
:10C66000B0FBF1F010F0F000019910EB0110009018
:10C6700042460023A6FB020106FB031107FB021141
:10C6800082468B46049840680021A4FB002304FBEB
:10C69000013305FB003350465946FCF7CBFE82467A
:10C6A0004046002102000B00A6FB020106FB03111D
:10C6B00007FB0211049A5268002316001F00A4FB16
:10C6C000062304FB073305FB0633FCF7B3FE6421A6
:10C6D000B0FBF1F009FB10A95FEA091032306421C8
:10C6E000B0FBF1F111F00F010098091804980068EF
:10C6F0008160A4E000F083FD8046042400255FF003
:10C7000064091926002742460023A6FB020106FB06
:10C71000031107FB021182468B46049840680021F2
:10C72000A4FB002304FB013305FB003350465946AC
:10C73000FCF780FE6421B0FBF1F00190424600233B
:10C74000A6FB020106FB031107FB021182468B4682
:10C75000049840680021A4FB002304FB013305FB7F
:10C76000003350465946FCF765FE009042460023D0
:10C77000A6FB020106FB031107FB021182468B4652
:10C78000049840680021A4FB002304FB013305FB4F
:10C79000003350465946FCF74DFE6421B0FBF1F1E1
:10C7A000009809FB1101080132306421B0FBF1F05F
:10C7B00010F0F000019910EB0110009042460023A8
:10C7C000A6FB020106FB031107FB021182468B4602
:10C7D000049840680021A4FB002304FB013305FBFF
:10C7E000003350465946FCF725FE8246404600215C
:10C7F00002000B00A6FB020106FB031107FB02115E
:10C80000049A5268002316001F00A4FB062304FBB1
:10C81000073305FB0633FCF70DFE6421B0FBF1F096
:10C8200009FB10A95FEA091032306421B0FBF1F175
:10C8300011F00F010098091804980068816005B094
:10C84000BDE8F08FF369FFFF0010014000140140C4
:10C8500080B5DFF86003DFF8601301605FF4E13159
:10C860004160002181600021C160002101610C2133
:10C870004161002181610021C161FFF78BF900282E
:10C8800001D000F097FE01BD80B5DFF83003DFF87E
:10C89000301301604FF41651416000218160002186
:10C8A000C160002101610C214161002181610021F1
:10C8B000C161FFF76FF9002801D000F07BFE01BDD8
:10C8C000F8B586B0040001A8142100F075FE2068B8
:10C8D000B94988426CD100200090BA48016851F0F3
:10C8E00010010160006810F0100000900098002016
:10C8F0000090B548016851F001010160006810F036
:10C900000100009000984FF4C06001900220029056
:10C9100000200390032004900720059001A9AB4854
:10C9200000F04EFEAA4DAB4828605FF000666E60D6
:10C930000020A8600020E8604FF480672F6100208D
:10C9400068610020A8614FF48070E86100202862CF
:10C9500000206862280000F059F9002801D000F09A
:10C9600029FE6563AC639C4D9C4828606E60402046
:10C97000A8600020E8602F61002068610020A861A5
:10C980000020E8610020286200206862280000F092
:10C990003DF9002801D000F00DFE2563AC630022B4
:10C9A0000521252000F097FF252000F0A9FF52E087
:10C9B0002068834988424ED1002000908848016851
:10C9C00051F400310160006810F4003000900098CC
:10C9D000002000907C48016851F00101016000686E
:10C9E00010F00100009000980C20019002200290AD
:10C9F00000200390032004900720059001A97348AC
:10CA000000F0DEFD774D784828605FF000606860D8
:10CA10000020A8600020E8604FF4806028610020BA
:10CA200068610020A8614FF48070E86100202862EE
:10CA300000206862280000F0E9F8002801D000F02A
:10CA4000B9FD6563AC6300220521262000F043FF99
:10CA5000262000F055FF07B0F0BD80B563480021E7
:10CA60000170634941604FF4FA718181534901615A
:10CA7000604800210170604941604FF4806181810C
:10CA8000C1815E4981604B49016100F001F801BD3F
:10CA900010B50400A28961682069FFF771F910BD23
:10CAA000F8B5040000202070A589002667683200D0
:10CAB0002900380000F03CFFF1BD2DE9F0410400F1
:10CAC0000D0016003000FFF7EBFF3069406B006887
:10CAD0000068400840003169496B09680860B08906
:10CAE0003169496B096848603069406B00680068CB
:10CAF00050F001003169496B096808602CA743F6C2
:10CB0000982843460A223100380000F0C0FC306902
:10CB10000068C06830F0100031690968C86064209E
:10CB2000FEF79EFC002030702A0092B2210030698E
:10CB3000FFF7DBF8434632223100380000F07DFC7D
:10CB4000BDE8F08110B5040020681B49884207D178
:10CB50002848017851F002010170FFF799FF0AE0BF
:10CB600020681749884206D12048017851F0020117
:10CB70000170FFF78DFF10BD0168114A914204D189
:10CB80001A490A7852F002020A70704701680A4A8C
:10CB900091420BD107490A68D26852F01002096825
:10CBA000CA6014490A7852F001020A707047000006
:10CBB000000000009454002000100140D4540020D4
:10CBC0000044004044380240303802400000024037
:10CBD000A05100204064024000520020B86402408E
:10CBE000403802406052002088600240EC5600202D
:10CBF0008848002000570020A03A0020A03E0020D6
:10CC000001480068704700BF8457002070B50400D9
:10CC10000026FFF7F5FF0500002C01D1012065E09B
:10CC2000606A0028002084F83400022084F835006F
:10CC3000206800684008400021680860206800689B
:10CC4000C0070BD5FFF7DCFF401B0628F6D32020DA
:10CC50006065032084F83500032047E02068016800
:10CC6000DFF8A80301406268A0680243E06802435D
:10CC70002069024360690243A0690243E0690243FC
:10CC8000206A02431143606A042803D1E26A206BE0
:10CC9000024311432068016020684669F608F600E7
:10CCA000606A0643606A042810D1A06A0643E06AFD
:10CCB00000280BD0200000F0AFF9002806D040205B
:10CCC0006065012084F8350001200FE0206846618E
:10CCD000200000F081F901003F22E06D82408A606F
:10CCE00000206065012084F83500002070BD2DE92A
:10CCF000F84304000D0016001F005FF00008D4F890
:10CD0000589094F83400012801D1022033E001202A
:10CD100084F8340094F83500012825D1022084F8E5
:10CD20003500002060653B0032002900200000F043
:10CD30003CF93F21E06D8140C9F808102068006887
:10CD400050F0160021680860206C002805D020688B
:10CD5000006850F00800216808602068006850F002
:10CD600001002168086004E0002084F834000220FB
:10CD700080464046C0B2BDE8F283010091F835001C
:10CD8000022803D080204865012009E0052081F8B1
:10CD9000350008680068400840000A6810600020FC
:10CDA0007047F8B5040000200090DFF864020068C6
:10CDB0004FF41651B0FBF1F5A66D37680821E06D10
:10CDC00011FA00F0074210D02068006840070CD527
:10CDD0002068006830F0040022681060E06D814037
:10CDE000B160606D50F001006065E06D3900C140D8
:10CDF000C8070BD520684069000607D50121E06D02
:10CE00008140B160606D50F0020060650421E06D0A
:10CE100011FA00F007420AD020680068800706D5A2
:10CE2000E06D8140B160606D50F0040060651021DC
:10CE3000E06D11FA00F007422CD02068006800076E
:10CE400028D5E06D8140B16020680068400311D5AD
:10CE500020680068000306D4206C00281AD0200047
:10CE6000216C884716E0A06C002813D02000A16C2C
:10CE700088470FE020680068C00505D42068006876
:10CE800030F0080021680860206C002802D02000E3
:10CE9000216C88472021E06D11FA00F007425FD035
:10CEA00020680068C0065BD5E06D8140B16094F8F1
:10CEB0003500052828D12068006830F01600216868
:10CEC00008602068406930F0800021684861206C6B
:10CED000002802D1A06C002805D02068006830F03E
:10CEE0000800216808603F21E06D8140B1600020AA
:10CEF00084F83400012084F83500206D002802D029
:10CF00002000216D88474FE020680068400311D55C
:10CF100020680068000306D4606C002820D0200040
:10CF2000616C88471CE0E06B002819D02000E16BA1
:10CF3000884715E020680068C0050BD420680068A9
:10CF400030F0100021680860002084F834000120CF
:10CF500084F83500E06B002802D02000E16B8847A0
:10CF6000606D002820D0606DC00717D5052084F8BB
:10CF7000350020680068400840002168086000987B
:10CF8000401C0090854203D320680068C007F6D497
:10CF9000002084F83400012084F83500E06C00287B
:10CFA00002D02000E16C8847F1BD30B404682468E9
:10CFB00034F4802405682C60046863608468402C25
:10CFC00004D10468A2600468E16003E00468A16021
:10CFD0000468E26030BC7047017801F0FF0110394D
:10CFE0001822B1FBF2F10B4A525CC265042905D349
:10CFF0000268920A9202121D826503E00268920A98
:10D0000092028265806D7047000000003F8010F042
:10D010000C000020A43D010810B402000020936A17
:10D020009169002916D1002B05D0022B03D008D31B
:10D03000032B0DD00DE0D16AC90101D501210800F3
:10D0400035E0D16AB1F1C07F01D1012108002EE0A5
:10D050002DE02CE09169B1F5005F18D1002B05D0CF
:10D06000022B03D005D3032B09D00FE001210800C8
:10D070001DE0D16AC90101D50121080017E0D16A7C
:10D08000B1F1C07F01D10121080010E00FE01900CB
:10D090000029022902D9C91E03D008E00121080095
:10D0A00005E0D16AC90101D501210800FFE7C0B23E
:10D0B00010BC7047704770472DE9F04104000D0027
:10D0C000002C01D1012095E0654F386810F00F0069
:10D0D000A84207D23D70386810F00F00A84201D076
:10D0E000012087E02078800716D52078400704D5F6
:10D0F0005C48016851F4E05101602078000704D5D4
:10D100005848016851F46041016056490A6832F09C
:10D11000F002A06802430A602078C00738D5606832
:10D12000012805D150480068800313D4012061E034
:10D130006068022802D06068032805D14A48006868
:10D14000800107D4012055E047480068800701D4DA
:10D1500001204FE0DFF80C81D8F800108908890021
:10D1600060680143C8F80010FFF74AFD0600D8F8D0
:10D17000000010F00C006168B0EB810F08D0FFF7E1
:10D180003FFD801B41F289318842F0D3032031E01A
:10D19000386810F00F00854207D23D70386810F0F3
:10D1A0000F00A84201D0012024E02078400706D5D6
:10D1B0002C490A6832F4E052E06802430A602078A1
:10D1C000000707D52748016831F46041226951EA18
:10D1D000C201016000F052F82449224A1268C2F3E9
:10D1E0000312895CC840224908602248006800F0A8
:10D1F000D3FB0020BDE8F0811D480068704780B572
:10D20000FFF7FAFF1C49174A1268C2F38222895CB1
:10D21000C84002BD80B5FFF7EFFF1749114A1268F9
:10D22000C2F34232895CC84002BD0F2202600D4A3F
:10D23000136813F003034360136813F0F003836073
:10D24000136813F4E053C3601268D20812F4E0527A
:10D250000261034A126812F00F020A607047000070
:10D26000003C02400838024000380240103C0108EF
:10D270000C00002008000020AC3D01082DE9F04121
:10D2800000240025002600271F48006810F00C002D
:10D29000002804D0042804D0082804D031E01B481A
:10D2A00030E01A482EE0DFF86880D8F8000010F06F
:10D2B0003F000400D8F8000040020CD5D8F8000068
:10D2C000C0F388101149A1FB000122000023FCF7E4
:10D2D000B1F805000BE0D8F80000C0F388100B4946
:10D2E000A1FB000122000023FCF7A4F80500D8F8F8
:10D2F0000000C0F30140401C40000600B5FBF6F002
:10D3000000E00248BDE8F081083802400024F40043
:10D3100004380240F8B500F08BFB00F028F800F06C
:10D32000A1FB00F017FC00F059FCFFF791FAFFF7A2
:10D33000ABFA00F021FD00F033FD8E4800F056FD01
:10D3400068468D491022FCF731F8FFF786FB00F0A4
:10D3500061FD00F0F0F801234FF48072874988489E
:10D3600000F0DEFEFDF767FFFEF745F8FEE700B5CB
:10D3700097B00BA8302100F01FF901A8142100F08C
:10D380001BF906A8142100F017F9002000907D4831
:10D39000016851F080510160006810F080500090E9
:10D3A0000098002000907848016831F4404151F421
:10D3B00000410160006810F44040009000980D208A
:10D3C0000B905FF480300C9001200D9001201090A4
:10D3D000022011905FF4800012900A201390D22056
:10D3E000149004201590042016900BA801F060F80A
:10D3F000002801D000F0DEF80F20019002200290FA
:10D40000002003904FF480500490002005900221EA
:10D4100001A8FFF751FE002801D000F0CBF8022050
:10D4200006904FF48070099006A801F02FFA0028AA
:10D4300001D000F0BFF817B000BD2DE9F0410400A5
:10D440000D0016001F005FF00008287810F00100A2
:10D45000002817D14046390080B289B2884211D2E3
:10D46000300080B2FDF7FCFF16EB08082000FBF748
:10D470002DFF0228E9D3424692B22100434800F032
:10D48000B5FCE2E7287810F00100BDE8F0812DE955
:10D49000F04104000D001600984600272878C0F3DC
:10D4A0004000C0B2002816D13800414680B289B28F
:10D4B000884210D2300080B2FDF7D2FFF719200069
:10D4C000FBF704FF0228E9D33A0092B221002F486B
:10D4D00000F08CFCE2E72878C0F34000C0B2BDE861
:10D4E000F0812DE9F04104000D0016009846002758
:10D4F0002878C0F38000C0B2002816D13800414619
:10D5000080B289B2884210D2300080B2FDF7A8FF05
:10D51000F7192000FBF7DAFE0228E9D33A0092B2AD
:10D5200021001A4800F062FCE2E72878C0F380008E
:10D53000C0B2BDE8F0811CB5154C16488168019158
:10D54000416800910368144A1449200001F058FA18
:10D5500013488460134941601349C1601349016055
:10D5600013BD10B5040020681149884201D101F0B3
:10D5700067FA10BD74380108A03B01087C4A0020FE
:10D580002C5600204038024000700040283A010824
:10D590000C540020145600209C330108843B0108E1
:10D5A00014570020F8340108803401082834010899
:10D5B0000000014070470000002201F04DBA000059
:10D5C000F8B50023002400260025102D80F0F080FF
:10D5D000012717FA05F213000A681A4014009C424A
:10D5E00040F0E4804A68012A08D04A68022A05D03F
:10D5F0004A68112A02D04A68122A1FD1D0F808C0FE
:10D600005FF0030E2A00D2B252001EFA02FE3CEA7C
:10D610000E0CD1F80CE02A00D2B252001EFA02FE23
:10D620005EEA0C0CC0F808C04268AF40BA434F68CD
:10D63000C7F30017AF403A4316004660C7685FF073
:10D64000030C2A00D2B252001CFA02F29743D1F81E
:10D6500008E02A00D2B252001EFA02FE5EEA070774
:10D66000C7604A68022A02D04A68122A1ED12A00DC
:10D67000D20800EB8202166A5FF00F0E15F0070267
:10D68000D2B292001EFA02FE36EA0E06D1F810E07F
:10D6900015F00702D2B292001EFA02FE5EEA0606FA
:10D6A00037002A00D20800EB8202176206682A00BF
:10D6B000D2B252001CFA02FC36EA0C0691F804C001
:10D6C0001CF0030C2A00D2B252001CFA02FC5CEAE5
:10D6D000060606604A68D20068D5002200923B4ADE
:10D6E000176857F480471760126812F4804200925E
:10D6F000009ADFF8DCC02A0092085CF822705FF024
:10D700000F0E15F00302D2B292001EFA02FE37EAA3
:10D710000E07304A904201D1002614E02E4A904272
:10D7200001D101260FE02D4A904201D102260AE0E4
:10D730002B4A904201D1032605E02A4A904201D1AA
:10D74000042600E00726F6B215F00302D2B29200DA
:10D75000964037432A0092084CF82270224E3268D5
:10D76000A243D1F804C05FEACC3C00D5224332602A
:10D770001E4F3E68A643D1F804C05FEA8C3C00D53A
:10D7800026433E601A4F3A68A243D1F804C05FEACC
:10D79000CC2C00D522433A60164F3E68A643D1F800
:10D7A00004C05FEA8C2C00D526433E606D1C0CE75C
:10D7B000F1BD1300DBB2002B03D00B009BB28361E1
:10D7C00003E00B009BB21B048361704744380240A6
:10D7D00008380140000002400004024000080240F6
:10D7E000000C024000100240003C0140043C01409B
:10D7F000083C01400C3C014010B410F00703DFF876
:10D80000184122684FF6FF010A40DFF8101151EA73
:10D8100003210A43226010BC7047DFF8FC00006857
:10D82000C0F302207047010049B2002909D4012247
:10D8300010F01F018A403A4903005BB25B0941F8CE
:10D840002320704710B4020052B2002A05D40A0106
:10D85000344B040064B21A5508E00A01324B04004C
:10D8600064B214F00F04234403F8042C10BC704776
:10D8700070B4030013F00704D4F10700052801D3A6
:10D88000042001E0D4F10700251D072D01D2002559
:10D8900000E0E51E012616FA00F0401E0140A940F6
:10D8A00016FA05F56D1E2A401143080070BC70473A
:10D8B000BFF34F8F18490A6812F4E0621B48024315
:10D8C0000A60BFF34F8F00BFFDE710B504002000D2
:10D8D000FFF792FF10BD2DE9F04104000D00160086
:10D8E0000027FFF79AFF8046320029004046FFF7E5
:10D8F000BFFF0100200040B2FFF7A4FFBDE8F081A8
:10D9000010B50400200040B2FFF78DFF10BD80B5B8
:10D91000FFF7CEFF01BD00000CED00E00000FA05AE
:10D9200000E100E000E400E018ED00E00400FA058A
:10D9300062F30F2262F31F42401810F0030308D075
:10D94000C91A1FD3DB0748BF00F8012D28BF20F8F4
:10D95000022D130030B414461546103928BF20E9B3
:10D960003C00FAD8490728BF20E90C0048BF40F81E
:10D97000042D890028BF20F8022D48BF00F8012D92
:10D9800030BC7047C91818BF00F8012DCB0728BF5D
:10D9900000F8012D704700002DE9F04387B0040026
:10D9A00000250026002221001920FFF794FF1920EE
:10D9B000FFF7A6FF002000901948016851F001010F
:10D9C0000160006810F001000090009801A902A811
:10D9D000FFF72BFCFFF71EFC07001248B7FBF0F81F
:10D9E000B8F10108DFF840901048C9F8000040F293
:10D9F000E730C9F80C00C9F804800020C9F810000D
:10DA00000020C9F80800484601F040F8002803D17A
:10DA1000484601F057F800E0012007B0BDE8F08368
:10DA20004438024040420F0054540020000001409E
:10DA300080B50B48016851F400710160016851F430
:10DA400080610160016851F4807101600320FFF77B
:10DA50003CFF0020FFF7A0FF01F056F9002002BDB7
:10DA6000003C0240F8B586B001A81421FFF7A4FDE0
:10DA7000002000903348016851F004010160016802
:10DA800011F004010091009900210091016851F00A
:10DA900080010160016811F080010091009900216E
:10DAA0000091016851F001010160016811F001016C
:10DAB0000091009900210091016851F0020101607C
:10DAC000006810F002000090009841F602171E4E08
:10DAD000002239003000FFF76CFE1C4C00224FF48E
